:020000040000FA
:020000001128C5
:100008007E1480310B1F0F282100111C0F2820009F
:10001800111C0F283F277E10090012282000D40148
:10002800D501D601D701D801D901DA01DB01DC01FC
:100038007E1020001F281608C6001508C5004608AF
:10004800AF004508AE00AE09AF09AF36AE0CAF360B
:10005800AE0CAF36AE0C2E08C0002F08C100410808
:10006800AF004008AE00AE35AF0D45082E07B8000A
:1000780046082F3DB9004108F7004008F600033054
:10008800F8000030F900622645087607CF004608D8
:10009800773DD000BF01B601B701D101D201842755
:1000A800C427D0262C27FF30F2000530F300B027F4
:1000B8000130E9261430022773082000CE007208A8
:1000C800CD004E08A3004D08A2001E2402302000D7
:1000D8004E02653003194D0203187428B72672289A
:1000E80003302000AF008A30AE005530890B7A28E3
:1000F800AE0B7A28AF0B7A280032D0260030E926DA
:100108002000C201C3010230E9262000901200300D
:10011800A000A100BD2400302000CC000030CB009E
:100128000030CA000030C900C3018C18FF28220023
:100138008E1620005008F3004F08F200B627D52786
:100148004208AE00AF012E08A0002F08A100BD2470
:1001580020008C18F528901EAC281430022773084C
:100168002000CE007208CD004908AE004A08AF0052
:100178004B08B0004C08B1004D08B2004E08B3005F
:10018800B401B5013208AE073308AF3D3408B03DBD
:100198003508B13D3108CC003008CB002F08CA0023
:1001A8002E08C9004308013EAE002E08C3004308CC
:1001B800AE000230AE36890BDE282E08AF002F08BD
:1001C800C2004208AE00AF012E08A0002F08A1000F
:1001D800BD24200090125008F3004F08F200B62703
:1001E800AC2822008E1220005008F3004F08F200BD
:1001F800B6279012D2270C0C890C0139AE00AF013A
:100208000C0C890C0139B0000C0C890C0139300731
:10021800B100B201B20D2E083107B3002F08323DEC
:10022800B40033083404031D992862302000AE005E
:100238006530890B1D29AE0B1D29003220004C08A2
:10024800BD004B08BC004A08BB004908BA00D026CC
:100258000030E9260330E92620009012D301530824
:10026800AE00AF012E08F6002F08F7000530F800A1
:100278000030F90062267708850076088400473048
:1002880084078630853D0008B0003008A200530876
:10029800B100B2013108F6003208F7000530F80065
:1002A8000030F90062267708850076088400483017
:1002B80084078630853D0008B3003308A30053083F
:1002C800B400B5013408F6003508F7000530F80029
:1002D8000030F900622677088500760884004630E9
:1002E80084078630853D0008032520000C0C013961
:1002F800AE00AF010C0C0139B0000C0C013930070D
:10030800B100B201B20D2E083107B3002F08323DFB
:10031800B40033083404031DEB29053053020318D5
:100328009A290130AE002E08D3079B29D30141300A
:100338002000AE00EE30890B9F29AE0B9F290000EC
:1003480020005308AE00AF012E08F6002F08F70072
:100358000530F8000030F900622677088500760835
:100368008400473084078630853D0008B000300897
:10037800A2005308B100B2013108F6003208F700B4
:100388000530F8000030F900622677088500760805
:100398008400483084078630853D0008B300330860
:1003A800A3005308B400B5013408F6003508F70077
:1003B8000530F8000030F9006226770885007608D5
:1003C8008400463084078630853D000803252000D8
:1003D8000C0C890C0139AE00AF010C0C890C0139E9
:1003E800B0000C0C890C01393007B100B201B20D14
:1003F8002E083107B3002F08323DB4003308340407
:10040800031D79290530F8000030F9005308AE00C3
:10041800AF012E08F6002F08F7006226770885003E
:1004280076088400443084078630853D003FB0005C
:10043800013FB100B201B3013308A5003208A4009E
:100448003108A3003008A2000030A9000030A8003D
:100458000E30A7001030A600A4252508D7002408D0
:10046800D6002308D5002208D40062302000AE0050
:100478006530890B3D2AAE0B3D2A0032D02600306C
:10048800E9260430E92600302000A000A100BD24A0
:10049800D92ABB27D527901E9F2A90120130D10751
:1004A8000030D23D00305202193003195102031CAA
:1004B8005F2AD101D2015208A1005108A000BD2431
:1004C80020003908F3003808F200B627901E842A65
:1004D80090125008F3004F08F200B6270130D107F8
:1004E8000030D23D00305202193003195102031C6A
:1004F8007F2AD101D2015208A1005108A000BD24D1
:1005080020000C0C0139AE00AF010C0C0139B00011
:100518000C0C01393007B100B201B20D2E083107B9
:10052800B3002F08323DB400033033063404031DF2
:100538006A2AD227D92A0C0C0139AE00AF010C0C5B
:100548000139B0000C0C01393007B100B201B20D0D
:100558002E083107B3002F08323DB40033083404A5
:10056800031D4F2A41302000AE00EE30890BBA2A15
:10057800AE0BBA2A000001302000D1070030D23D6E
:1005880000305202193003195102031CCD2AD1013F
:10059800D2015208A1005108A000BD24D227901210
:1005A8005008F3004F08F200B62720000C0C013960
:1005B800AE00AF010C0C0139B0000C0C013930074A
:1005C800B100B201B20D2E083107B3002F08323D39
:1005D800B4003308340403194D2A0C0C890C013972
:1005E800AE00AF010C0C890C0139B0000C0C890C61
:1005F80001393007B100B201B20D2E083107B3003E
:100608002F08323DB40033083404031DD92A623060
:100618002000AE006530890B0F2BAE0B0F2B00327C
:10062800D2275108A2005208A300A401A501FF3057
:10063800A900FF30A800F130A700F030A600A425DB
:1006480022085407AE002308553DAF002408563D44
:10065800B0002508573DB1003108DB003008DA004A
:100668002F08D9002E08D800D0260030E9260530FA
:10067800E92620009016BE015008F3004F08F2004A
:10068800B627D527901E572B3E0803194D2B00304F
:100698004E2B0530E92601302000AE002E08BE069C
:1006A800BB27D52790120C0C890C0139AE00AF017D
:1006B8000C0C890C0139B0000C0C890C013930077D
:1006C800B100B201B20D2E083107B3002F08323D38
:1006D800B40033083404031D462B62302000AE00FA
:1006E8006530890B752BAE0B752B003220009012EC
:1006F800D227D0260030E9268B170B17CF27AA2739
:10070800C401C701C8017624AE002E08C4006300E6
:1007180020003F080319922BB726902B5C08031979
:10072800FA2B22008E1620005008F3004F08F20022
:10073800B627D5270030CC000030CB000030CA00E7
:100748000030C90090163D084C02031DB52B3C082B
:100758004B02031DB52B3B084A02031DB52B3A0873
:1007680049020318F42B901EA72B14300227730894
:100778002000CE007208CD004908AE004A08AF003C
:100788004B08B0004C08B1004D08B2004E08B30049
:10079800B401B5013208AE073308AF3D3408B03DA7
:1007A8003508B13D3108CC003008CB002F08CA000D
:1007B8002E08C9004E08A3004D08A2001E242000E0
:1007C8005008F3004F08F200B627901202304E028C
:1007D800653003194D020318A72BBF01BF0AA72BC9
:1007E80022008E12D227D0262000DC010E304802CB
:1007F800113003194702031C0D2C7624AE002E0875
:10080800C4004408031D0A2CBF01BF0AC701C80160
:10081800132C4708013EC7000030483DC800471860
:100828008B2B4408E926FA300032890B182C00304B
:10083800E9268B2B2308F7002208F6003230F8004F
:100848000030F90062267608A4007708A5000A306F
:10085800A536A40C890B2C2C2408A9002508AA006D
:100868000A30F2000030F3002A08F5002908F400E5
:10087800D3257208A4002408A6000A30F20000302C
:10088800F3002A08F5002908F4003D257208A400A1
:100898002408A7002708793E840087300318013E02
:1008A800850000088038A4002408A8004430802669
:1008B80020002608793E840087300318013E850011
:1008C8000008A4002408F500C13022268F308026B5
:1008D8004430802620002808A4002408F500C030F1
:1008E80022260800143002277308F7007208F60061
:1008F8003230F8000030F90062267608A200770846
:10090800A3000A30A336A20C890B862C2208A40067
:100918002308A500003025022A3003192402031CED
:10092800972C0130080000302502273003192402D3
:10093800031CA02C023008000030250224300319C3
:100948002402031CA92C03300800003025022130A2
:1009580003192402031CB22C0430080000302502BD
:100968001E3003192402031CBB2C0530080000307C
:1009780008000A30F2000030F3002108F5002008D2
:10098800F400D3257208A2002208A3000A30F2005E
:100998000030F3002108F5002008F4003D25720816
:1009A800A2002208A4002408031DDE2C0A30A2009D
:1009B8002208A4004430802620002308793E8400C1
:1009C80087300318013E85000008A2002208F500C0
:1009D800C13022264430802620002408793E840035
:1009E80087300318013E85000008A2002208F500A0
:1009F800C03022268F3080268F3080260800A50040
:100A08004430802620002208793E8400873003186D
:100A1800013E85000008A4002408F500C130222604
:100A280044308026200023080319242D2508793E08
:100A3800840087300318013E850000088038332D74
:100A4800250803192E2D2508793E840087300318C0
:100A5800013E312D83308400873085000008A400D2
:100A68002408F500C03022268F3080268F3080265B
:100A78000800F701F8017208730403196C2DF901D5
:100A8800F90AF31B512D0130F235F30D890B482D6E
:100A98000130F6007608F907452D0130F735F80DD5
:100AA800890B522D73087502031D5C2D72087402A0
:100AB800031C632D7208F4027308F53B77140130A8
:100AC800F336F20C890B642D0130F902031D512D08
:100AD8007808F3007708F2000800F3002930890B42
:100AE800732D0032F40122008E100C30890B7A2D00
:100AF8000000731C822D22000E14842D22000E107B
:100B08001D30890B852D22008E140310F30C29301B
:100B1800890B8C2D00320130F2007208F40708307E
:100B28007402031C772D22008E100C30890B9A2D2D
:100B3800000022000E102930890BA02D0032080079
:100B48000030AD000030AC000030AB000030AA002F
:100B5800221CB62D2608AA072708AB3D2808AC3D5D
:100B68002908AD3D0130A635A70DA80DA90D890BA3
:100B7800B72D0130A536A40CA30CA20C890BBE2DF1
:100B88002508240423042204031DAC2D2D08A500E8
:100B98002C08A4002B08A3002A08A2000800720849
:100BA80073040319FA2DF701F70AF31BE52D013039
:100BB800F235F30D890BDC2D0130F6007608F707C6
:100BC800D92D73087502031DEB2D72087402031CDE
:100BD800F12D7208F4027308F53B0130F336F20C7C
:100BE800890BF22D0130F702031DE52D7508F3007E
:100BF8007408F20008000130D8070030D93D0030F1
:100C0800DA3D0030DB3D57085B02031D152E560800
:100C18005A02031D152E55085902031D152E540896
:100C28005802031C08000030DB000030DA000030F6
:100C3800D9000030D800DC01DC0A0800F6002200E8
:100C48000E1076087125750871250C30890B2A2E2F
:100C5800000022008E100C30890B302E000022007C
:100C68000E101D30890B362E22008E140C30890B85
:100C78003B2E000022000E141D30890B412E080067
:100C88000C34003400340534013418340034003492
:100C98000134003430340034003402340034243455
:100CA8000034003403340034A834003400340734EA
:100CB8000034503401340134043400342000A001DD
:100CC800A101761C6C2E78082000A0077908A13DA8
:100CD8000130F835F90D890B6D2E0130F736F60C19
:100CE800890B722E76087704031D652E20002108D3
:100CF800F7002008F6000800F50022000E1075081D
:100D0800712522008E100C30890B882E00002200DD
:100D18000E101D30890B8E2E22008E140C30890B7C
:100D2800932E000022000E141D30890B992E080006
:100D380022008C018E01373021008C0010308E008B
:100D4800103023008E0021308C00073024008C00E6
:100D580003308E0025008C018E013C001208E0391A
:100D680004389200080044308026CD308400873053
:100D780085000008F7007708F500C1302226CC303E
:100D88008400873085000008F7007708F500C03038
:100D980022268F3080260800833084008730850023
:100DA8000008F7007708F800443080267808F70034
:100DB8007708F500C13022267808F7007708F50093
:100DC800C0302226803080260800F8007808A43E2B
:100DD800840087300318013E85000008F700770873
:100DE800F900443080267908F7007708F500C2300A
:100DF8002226883080268F3080260800F500750866
:100E0800F400F40DF40D21001D087406033974066E
:100E18009D001D14000021009D149D18112F1C0811
:100E2800F3001B08F200080020009C01F0309A0033
:100E380099011A08E0001908DF00111021001114A7
:100E4800D830F2000730F300B027BD309B0008000F
:100E5800A4308400873085000008F7007708F80080
:100E6800443080267808F7007708F500C23022263B
:100E780080308026080011106008F1005F08F0003B
:100E88006B275D085E04031908005E088A005D0888
:100E98000A00873108001B1D582F1B1073089A0081
:100EA800720899001B14080073089A0072089900C8
:100EB800080058309800FE30960018309500160843
:100EC800FB001508FA0090129030970008001B1DCF
:100ED800742F1B1071089A00700899001B140800E1
:100EE80071089A007008990008003F3406345B3492
:100EF8004F3466346D347D3407347F346F340034B6
:100F08008C279C269427C8279C2718275D2708002C
:100F18003200910192019301940195019601080014
:100F28006030320099009B019D019F019E010800DD
:100F380001309D00C0309E009F019B019C0108006C
:100F48000034203401340234403480346008F30023
:100F58005F08F2004F27080073082000DE007208BF
:100F6800DD000800730896007208950008007B08E9
:100F780096007A089500080010340E3400340034C6
:100F880022008E140E140800163021009700080065
:100F980038343F34003420001B1408002000971315
:0A0FA80008009717080080340800C5
:020000040001F9
:08000E00EC3FF33FFF1FFF3F31
:00000001FF
